:020000040000FA
:10000000100D0020810100008F010000910100000F
:1000100000000000000000000000000000000000E0
:10002000000000000000000000000000930100003C
:100030000000000000000000950100003D5100009C
:10004000595200005D52000091380000153900003F
:100050007536000039460000292F00003D320000AF
:100060009D56000049190000C1140000DB1D00006E
:10007000F9590000AD47000000000000000000003A
:100080000000000000000000000000000000000070
:100090000000000000000000000000000000000060
:1000A0000000000000000000000000000000000050
:1000B0000000000000000000000000000000000040
:1000C00000F002F800F030F80CA030C8083824180E
:1000D0002D18A246671EAB4654465D46AC4201D180
:1000E00000F022F87E460F3E0FCCB6460126334282
:1000F00000D0FB1AA246AB4633431847D06A000033
:10010000F06A00000023002400250026103A01D3E5
:1001100078C1FBD8520700D330C100D50B607047BF
:100120001FB51FBD10B510BD01F07AF91146FFF7DC
:10013000F7FF05F031FE01F092F903B4FFF7F2FF8B
:1001400003BC01F099F9000070B505460C4616464F
:1001500002E00FCC0FC5103E102EFAD2082E02D3AB
:1001600003CC03C5083E042E07D301CC01C5361FBE
:1001700003E021782970641C6D1C761EF9D270BDD5
:10018000094880F308880948804709480047FEE786
:10019000FEE7FEE7FEE7FEE7FEE70000054806494A
:1001A000064A074B70470000100D00205152000016
:1001B000C100000010070020100D002010090020D1
:1001C0001009002010B5202A04DB0146203A914096
:1001D000002010BD914020239C1A0346E3401943A0
:1001E000904010BD10B5202A06DB0846CB17203AF8
:1001F0001041C1170B4306E00B4620241341D040A9
:10020000A21A91400843194610BD4343514330B5EB
:100210005C18010C130C0D4692B25D4380B2514341
:100220002C19054655430A0C09044D1962415843DF
:10023000010C00044019514130BD70B500252C4619
:10024000AD1A9C4112DA00252C462D1A8C4102DA97
:1002500001F065F870BD002440428C41214601F058
:100260005EF8002440428C41214619E000252C46CE
:100270002D1A8C410ADA002452429C41234601F097
:100280004EF8002440428C41214670BD0024524269
:100290009C414042234600248C41214601F03FF816
:1002A000002452429C41234670BDF8B5042A2CD349
:1002B000830712D00B78491C0370401C521E830721
:1002C0000BD00B78491C0370401C521E830704D0CE
:1002D0000B78491C0370401C521E8B079B0F05D0E6
:1002E000C91ADF002023DE1B08C90AE0FFF72CFF34
:1002F000F8BD1D4608C9FD401C46B4402C4310C043
:10030000121F042AF5D2F308C91A521EF0D40B7832
:10031000491C0370401C521EEAD40B78491C037020
:10032000401C012AE4D409780170F8BD01E004C042
:10033000091F0429FBD28B0701D50280801CC90745
:1003400000D00270704700290BD0C30702D00270A2
:10035000401C491E022904D3830702D50280801C59
:10036000891EE3E70022EEE70022DFE7002203090F
:100370008B422CD3030A8B4211D300239C464EE0C0
:1003800003460B433CD4002243088B4231D303097C
:100390008B421CD3030A8B4201D394463FE0C3092E
:1003A0008B4201D3CB01C01A524183098B4201D346
:1003B0008B01C01A524143098B4201D34B01C01A31
:1003C000524103098B4201D30B01C01A5241C308A9
:1003D0008B4201D3CB00C01A524183088B4201D318
:1003E0008B00C01A524143088B4201D34B00C01A04
:1003F0005241411A00D201465241104670475DE019
:10040000CA0F00D04942031000D34042534000229B
:100410009C4603098B422DD3030A8B4212D3FC2244
:10042000890112BA030A8B420CD3890192118B42C3
:1004300008D3890192118B4204D389013AD09211D9
:1004400000E08909C3098B4201D3CB01C01A524194
:1004500083098B4201D38B01C01A524143098B425D
:1004600001D34B01C01A524103098B4201D30B0146
:10047000C01A5241C3088B4201D3CB00C01A52416B
:1004800083088B4201D38B00C01A5241D9D2430852
:100490008B4201D34B00C01A5241411A00D201468F
:1004A000634652415B10104601D34042002B00D5F9
:1004B0004942704763465B1000D3404201B50020BB
:1004C000C046C04602BD7047704770470246C80F1D
:1004D000C00781434B0030B54B405B009B0D20D0E3
:1004E0001923DB06C91801231B05994220DB0324CD
:1004F000A40704251346AB400BD3002B04D1EB0615
:1005000013409B00E34204D4012464070023121922
:100510005941FF231B0599420BD2C9000143500FDB
:1005200009E0CB0204D501430803024305D0054886
:1005300030BDFF21C905084330BD08460721090524
:10054000884330BD0000C07FF0B50C46871A9C413F
:100550000D46861A9D4103D2C01BA141D2196341A9
:100560000D0D1F0DC94EEC1BAE435CD07F057F0DFA
:100570000026002F51D02D05AC46A943DD020123F2
:10058000ED0A1B051D4320231B1B24D41746E740FF
:10059000381871412F46E740CC199D402818314644
:1005A00061410C0D27D161449A4013D50023401CB2
:1005B000594152000ED14008400001224B00520523
:1005C000D34207D305204007C14201D5B04900E01E
:1005D000B0493046F0BD6B00002A00D001229A18C5
:1005E0001F23203C1B1B01D5002302E0E5402818F7
:1005F00071410C0DD7D0012424050919C407CD077A
:1006000040084908E40F28436144002CD5D0002459
:10061000401C61419A40D0D1CDE76A05520DD9D135
:10062000C90FC907D5E79C4D4E00002801D0012411
:1006300000E0002434195F00002A01D0012600E008
:100640000026BE19954FAC420CD8AE420AD8B4422F
:1006500006D001256D05EC42BCD010461946F0BD10
:100660009942FCD000203946F0BDF0B51FB40C46CD
:100670000F46811A9F412546861A9D4106D20125C3
:10068000ED076F40401ABC4152187B41210D1E0DF1
:100690008D1BAC467D4D8D437ED075056D0D7CD098
:1006A0000D05AE46AC431B031B0B794D52429D41D9
:1006B000202366469B1B14D31746F74038180026A4
:1006C0000090744160462F460741E41900989D4010
:1006D0002818664116D4714671189A4025D5012311
:1006E00020E093182A466A415200002B00D0521C89
:1006F0001E23203E9B1B002B61DD3541EE17281881
:100700006641E8D5001876415B1C9A4000D3401C36
:100710004B05F3181524E34010D3002B52D071463B
:100720007118D30FC01802D3491C05B0F0BD0123C6
:10073000DB079A42F9D140084000F6E70122520552
:10074000B21801D1002853D00123CC0ADB0299430F
:10075000891E002A08D1020C03D0020C00041039B3
:1007600002E00246002020390023550B05D1120279
:100770000823550B01D152010D23550C01D1120153
:100780001B1DD50C01D192009B1C150D01D15200EF
:100790005B1C2025EE1A01E02CE022E00546F54026
:1007A00015439840CA1AE10769181305C918002AA9
:1007B000BBDA032040070818C10FC9070FE07146D4
:1007C0006118B2E7F10740080843711071444A000C
:1007D0000CD001235B059A42A7D2C90FC90700209C
:1007E000A3E74905490D26D1002001E00028F4D1F6
:1007F00000219AE7284D6600002801D0012100E081
:10080000002171185F00002A01D0012600E00026B7
:10081000BE19224FA94210D8AE420ED8B14208D01C
:1008200001256D05E94206D01946A802414010464F
:100830007BE79C4201D0214677E70020394674E7E8
:1008400010B50C465C4005D50124E4076340FFF772
:100850000CFF10BDFFF778FE10BD30B40C465C40B5
:1008600004D50124E407634030BC6DE630BCFCE6EF
:1008700070B50124E40761400D465D4002D4FFF7E6
:1008800063FE70BD6340FFF7F0FE70BDFF07000020
:100890000000F0FF0000F07F0000E0FF0000F87FA4
:1008A000F0B5F94D0C091E092C402E402F468BB097
:1008B000A7437DD0B543FCD0002E7AD0002CFCD0CD
:1008C0000D465D40ED0F2543AC1BFF25AD046419BB
:1008D0000894C502440DC9022143500DDC020443B3
:1008E0000120C00701430443D2020191200C110CE6
:1008F00000958C46010423468B430A916146090406
:10090000E24D8A430991010A7D44491980390978E9
:1009100005464D4301266D18F605751B6943C90C44
:10092000640B891C4C436418B5012C1B250C2E0448
:10093000B4434C434D43210C691889090591009D2E
:10094000E90701D00121C90704912C4601996708E4
:10095000CD072F434C08059DE10B4D432D0C294637
:100960006646754302950D4645432E46029D7D1B06
:10097000B44100950D465D4301942C0C2F040D46A7
:100980005543AE462D0C3D43029503947546049C99
:100990002D04641B049406D2029C039D641C002653
:1009A00075410395029401AC70CC009F7D1B01E062
:1009B0003EE162E1B4410904009507910194059973
:1009C000A4086143090C0C464443650BE7040C463C
:1009D00066467443A646640B3C43039502947446F2
:1009E000049DE4042C1B049406D2029C039D641C09
:1009F000002675410395029401AC70CC009F7D1BCD
:100A0000B44101940C465C430095650FE7000C4629
:100A10005443A646640F3C43039502947446049DD8
:100A2000E4002C1B049406D2029C039D641C002647
:100A300075410395029401AC70CC009F7D1BB441BD
:100A4000AE09AF06049DC900AD092F43049DA4065D
:100A5000AD060495079D344369180791059DE10B88
:100A60004D432D0C29466646754302950D46454378
:100A70002E46029D7D1BB44100950D465D430194B9
:100A80002C0C2F040D465543AE462D0C3D430295CC
:100A900003947546049C2D04641B049406D2029CA6
:100AA000039D641C002675410395029401AC70CC33
:100AB000009F7D1BB44101948C050694079C890A14
:100AC000611800950791019C0599A4086143090CE0
:100AD0000D464543680BEF040D46644665436C0BB9
:100AE0003C43049FED047D1BAC4602D20025641CF0
:100AF0006841009E019D371B85410846584301957A
:100B00000C46460FC5005443600F28436546E40079
:100B10002C1B02D20025401C6E41019D3F1AB5419D
:100B20002846BD09800628438446A009BF064E0218
:100B30000699A40676180743079D002068410A9984
:100B4000079019430020099B00906046FF1913434A
:100B50004041E20F64003A43A4460446D71A8C4150
:100B6000A04203D90120009020463A46C70F9418AE
:100B700040416246D20F2243644664000494009CC4
:100B8000BE466400D71AA446044602978C417746B5
:100B9000002F01D1A04204D96046401C8446029A2D
:100BA0002046C40FA64694184041049A0546D20F29
:100BB000224364466400D31A8D417146002901D155
:100BC000A84202D928461A46641C10430122002874
:100BD00000D0164361020020079B891904465C413E
:100BE0000223002C02DB491813466441089DCE0AFB
:100BF0002D145D194B056705E10A2C050D1908999F
:100C00003E43C9076940002B08D0934006D3002219
:100C1000761C5141002B01D1760876001C4A002D2C
:100C200043DB154241D0AA433FD030460BB0F0BD64
:100C300006180D464D41174C7642AC411AD3951813
:100C40001C465C41134A6D42A24113D30122520556
:100C50004C00D4420AD15C00D4420BD04B4002D5A8
:100C600092021143E2E749004908DFE75940C90F02
:100C7000C90718E000200849D8E7054801420DD10E
:100C80000342F7D0F2E700000000FF07FE6100001A
:100C90000000F07F0000E0FF0000F87F114859409D
:100CA0000143C01241400020C0E70123089A9B067F
:100CB0009A4205DC032252078918C90FC907B5E714
:100CC000052252078918074A1143D2125140ADE755
:100CD00070B515461C4602460B4628462146FFF7CE
:100CE000DFFD70BDFFFFFF7F30B50346CA02400D38
:100CF0001043164D164C0A1502D02043002A06DB7D
:100D0000AA1A002A12DDD040FF2A0BDC30BD5205A2
:100D1000520D01D140004008AA1A07D4D0404042E9
:100D2000FF2A01DD002030BD0028FCDD4A00002B39
:100D300001D0012000E00020101801225205D0420D
:100D4000F0D8C817C043604030BD00001E0400004A
:100D5000000000800346CA02400D10B510430A157A
:100D600004D00124E4072043002A05DB0A4CA21A20
:100D700004D4D040FF2A00DD002010BD4A00002B23
:100D800001D0012000E00020101801225205D042BD
:100D9000F2D8C817C04310BD1E0400001F22030C68
:100DA00002D10F22000402D0030E03D004E0002081
:100DB000014670470002083A030F01D10001121FDB
:100DC000830F01D18000921E002801DB4000521EDB
:100DD000120551184205C012411810467047C10F44
:100DE000C90700D04042012292071143D6E70121F2
:100DF0008907D3E710B50B1E01D0202301E0011EA7
:100E00002BD00C0C01D10904103B0C0E01D10902AE
:100E1000083B0C0F01D109011B1F8C0F01D1890068
:100E20009B1E002901DB49005B1E0446DC40214378
:100E30001C05A4182022D21A90404B05C20AC90AE8
:100E40001A430919830501D1430818401623984015
:100E500002D30020521C4141104610BDCA0FD207D8
:100E600003D00B46002140429941024B1A43C1E78F
:100E7000004ABFE70000D041F0B58B4C0F09254672
:100E800089B0BD437BD01D092646AE43FAD00E463D
:100E90005E402740F60F3E43254071D02401214299
:100EA000FBD0FF24AD19A4042D1B039501252D05AE
:100EB000DB02DB0AC9022B43C90A29431E010901CF
:100EC000040F130F050121431701880B820391437F
:100ED0002D098C46A90B1E438A039543B30B9A0335
:100EE00096433F09BA0B9403A74302962E467E43CE
:100EF0000497B6464E19D7190C46019654430597E8
:100F00007E43371B7646BF1B3601B646BE0B3619ED
:100F100000967646BC043719009C01D3641C0094EB
:100F20006400002F01D001263443029E049F7543C4
:100F300066467E430496760034196E003419009498
:100F4000029C019E1C196643751BAE4606946546BD
:100F50004519059C05956C43594375460891691AD6
:100F60000191049E01465143A41B0491611A009C07
:100F70000791E10605D061090122114302E072E008
:100F80006EE06109089D00272C0A2D066918049D52
:100F90007C412A0A2D066918019D6241AC0DAD0203
:100FA0006D185441079A910D920255196141029AA8
:100FB000644658435443069B059A5A43121A131B1E
:100FC0009A0E9B015B187A41010B0005C318514131
:100FD000220A200644195A419A4200D2491C012093
:100FE0004002814203D315230226F64302E0142374
:100FF0000326F6432020C51AA9401746AF40DA4021
:101000000A4320460399D84009147318190551184A
:10101000039A3843D2075140AC4009D00122944092
:1010200006D30022401C5141002C01D14008400051
:101030001E4A934212D3012203989206904207DB84
:101040000520400709181A480143C012414004E036
:10105000032040070818C10FC907002009B0F0BDE0
:101060000020F107FAE705180C464C4111486D4283
:10107000A04115D394181A465A410E486442904133
:101080000ED301204A004005824209D35A00824211
:1010900006D35940C90F084AC90700201143DDE7AC
:1010A00000200649DAE700000000FF07FE07000005
:1010B000FFFFFF7F0000E0FF0000F07F0000F87FEF
:1010C0000121C9050123411842001B06D3185B0EFC
:1010D0000AD0C1100722D206891840075242D142D5
:1010E00001D5520089187047090208D50146002A27
:1010F00003D0C10FC9070020704710467047420255
:1011000002D0002002497047072109050143F4E796
:101110000000F87FF0B5FF252D04C609C209FF279E
:1011200004462E400137CB093E4348402A402B401D
:101130000746002A6BD0002B69D0AA4267D0AB4289
:1011400065D0002800DA32460125ED0529432C43FD
:1011500009022002090AD21A4B0C7F24E31A434CDD
:10116000000A7C44E35C7D242404121914145B00FF
:10117000A218884201D3521C00E0400049420C46AC
:101180005C4324115C43DB016415E318040A5C43EF
:10119000C502200D0C4644436419250A5D43230310
:1011A000EC0C0D46654300030019EB184C42A342BA
:1011B00001D35B18401CD4052018002B07D05B001E
:1011C000C91804D3401C002901D1400840003F2128
:1011D00089048A4209D3002A08DC1106090F04D0C9
:1011E000032149074018C00FC007F0BD012241008C
:1011F000120689187F2252069142F6D2052149072C
:10120000C84201D59010F0BDFF20C005F0BD002FF1
:1012100000DA32461648AA4207D2AB4205D219027A
:10122000090E17D0F80FC007F0BDFF2563002D068B
:10123000AB42F9D84900A942F6D8AB4201D1A94244
:10124000F2D0A94201D1002101E061004908D00596
:101250000843F0BD1102090EFBD0FF200243D00568
:10126000F0BD0A460146104654E70000245A00002B
:101270000000C07F10B501469E240002CA15A307D6
:10128000002A02D01843002A04DBA21A002A0CDD2F
:10129000D04010BD1206120E01D140004008A21A23
:1012A00003D4D04040420028F3DDFF22480012065C
:1012B000904201D9002010BDC817C043584010BD4E
:1012C0001F22030C02D10F2200041CD0030E01D1F7
:1012D0000002083A030F01D10001121F830F01D150
:1012E0008000921E002801DB4000521ED2055118DA
:1012F000021251181922904004D3491C002801D130
:101300004908490008467047C10FC90700D040424C
:10131000012292071143D3E701218907D0E7FEB5E7
:10132000054610460C46184373D0AE468C46002046
:10133000AD1A01469C4167D36646002701243D460D
:10134000B61A9D4102D313463A4621246546764695
:101350002F04360C3E432D0CB61A9D4104D3150CB8
:101360001B042B4312041034654676462F06360ABA
:101370003E432D0AB61A9D4104D3150E1B022B4382
:1013800012020834654676462F0736093E432D097A
:10139000B61A9D4104D3150F1B012B431201241DC6
:1013A00065467646AF07B6083E43AD08B61A9D417E
:1013B00004D3950F9B002B439200A41C65467646F0
:1013C000EF0776083E436D08B61A9D411AD392186E
:1013D0005B41641C16E00018764665464941B71A21
:1013E0009D410191009009D36046B11A98418E4603
:1013F0008446009801990025401C6941DD07520888
:101400002A435B08641EE6D57246634603B0F0BD0E
:10141000FFE700200146C046C0462A462346F5E7BE
:10142000754600F025F8AE46050069465346C008EB
:10143000C000854618B020B5FEF7B0FE60BC00279E
:101440004908B6460026C0C5C0C5C0C5C0C5C0C590
:10145000C0C5C0C5C0C5403D49008D46704710B5E8
:101460000446C046C0462046FEF767FE10BD000099
:1014700000487047AC06002001491820ABBEFEE7CB
:1014800026000200704730B58C180278401C130704
:101490001B0F01D10378401C120906D10278401CB1
:1014A00003E00578401C0D70491C5B1EF9D101E07A
:1014B0000B70491C521EFBD1A142E6D3002030BD67
:1014C00010B51F48C16A03221143C1621D4800F0D4
:1014D000BBFD1C4C2088401C20801B4901208870CB
:1014E000174840380089194948842220085E00F0D6
:1014F000DDFC207907280CD1154A1649134800F065
:101500001FFB15480021415E144A0020105E00F0C8
:1015100077FE01F047FF124C6069C00602D4606993
:1015200080060BD50E480021803802F00BFF3020DA
:1015300060610C48018802221143018010BD000047
:1015400040040140440100203001002054010020EB
:1015500012000020EC0300200404002024000020DE
:10156000800701401000002070B505460C4601219F
:10157000080203F01DF92088A866A178608A890214
:101580000843217DE2880903120111430843217CAD
:101590000902084380B2686561892089090108430E
:1015A000A189E2890902120311430843286570BD2D
:1015B0000748827C07487A21002A03D0064A026045
:1015C00041607047FF22293202604160704700008D
:1015D0008C05002040040140208100000021018092
:1015E00041808180C180018141818181C1810182ED
:1015F00041828182C18201834183704710B588B0E6
:1016000001A8FFF7EBFF012000246946CC800622E9
:101610008A81CC81C8820C838C82888001A90A4887
:10162000FFF7A2FF0848FF214030C1624169C214A0
:1016300011434161FFF7BCFF054804498162C105C0
:101640008C61846208B010BD00040140837A000000
:10165000800000401FB504462146684603F08CF820
:10166000009802900F496B460820185E4A6A504362
:10167000C01300B220800A229A5E496A4A43D113FD
:1016800009B261804218524212B2A280891A064AF7
:10169000514309146182208200F0E6FA0349088070
:1016A0001FBD000040020020CE9300002400002057
:1016B00002490A68C2640860704700008400002084
:1016C000024A118892784843104170479C030020D9
:1016D000024A1189927A4843104170479C030020C6
:1016E00010B5134C1421606D0014E086615E081A79
:1016F00010490861084600F0F7FC002801DD0021D0
:1017000005E00D4918228A5E5142814201DDE182E5
:1017100000E0E0821621615E401A0649143108613A
:10172000084600F0E1FC20831620205E10BD00007A
:101730008800002084060020940100200A4988784F
:10174000042802D0002803D004E00022CA6201E08D
:101750000122CA62CA6A002A02D0401C88707047FF
:10176000401E8870704700002C000020072903D01D
:10177000890008188262704700218B001B189A624A
:10178000491CC9B20729F8D37047F8B504460D467D
:1017900016461F4650212846FEF7E6FD2022214628
:1017A000281D03F0B7FC2C4620340620C043000758
:1017B000000F903020710920A0712E606079B90768
:1017C00080088000890F08436071B0476179800705
:1017D000F322000F11400143617100214A2041555D
:1017E0002846FFF765FF284602F0A8FEF8BDF8B5C9
:1017F00006463068804734462034617935460A070A
:10180000920F00274035824223D0AA7A521CD2B2CE
:10181000AA72022A1DD3F32280071140000F014350
:101820006171AF7220790107090F092904D00229DB
:1018300002D0010704D00CE000090001207108E08B
:1018400000090001401C2071F16A002901D03046D6
:10185000884721790807000F10D0012824D00228DA
:101860000BD1687A401CC0B268720F2805D30620DD
:10187000C0430007000F90302071F8BD6079010768
:101880008007890F800F8142F7D1287A401C00061B
:10189000000E2872F1D02F720520A071F16B002983
:1018A000EBD030468847F8BDA079002810D0032837
:1018B0002FD00528F7D1EF72316C002901D03046C6
:1018C00088470620C0430007000F50302071F8BD44
:1018D000687A0F2802D8080902280CD06F72EF72BC
:1018E000B16A002901D03046884702200007000F66
:1018F00020302071F8BD0220A071316B002901D089
:10190000304688470620C0430007000F9030207102
:10191000F8BDB16B002901D030468847EF72062030
:10192000C0430007000F30302071F8BD10B50548E6
:10193000046803E02046FFF75AFFE46C002CF9D15D
:1019400010BD0000840000201CB515480321416033
:101950004168890723D50021009101910AE041697E
:10196000890703D56A461178491C00916A461179A6
:10197000491C0191694609790529F0D36846007828
:1019800003280CD90021074802F0DCFC054930206F
:1019900080314861044801880222114301801CBD46
:1019A00000020140000701401000002070B504460D
:1019B0000121082002F01EFF6069616C40020143B2
:1019C000A06CA26900025200104301432B48016041
:1019D000216862680901D2001143A2681143816045
:1019E000E169226AC90192011143626A52011143FD
:1019F000A26A12011143E26CD2001143226D9200DF
:101A00001143626D52001143A26D1143C160616BBD
:101A1000A26BC90192011143E26B52011143226C86
:101A200012011143626ED2001143A26E9200114363
:101A3000E26E52001143226F11430161114A1049B5
:101A4000916243055969104D2940E56A2D032943E8
:101A5000E568ED022943E56D2D0229432569ED0175
:101A60002943256B246E2D012943A400214359618C
:101A7000002191620321416070BD0000000201401D
:101A8000837A000080000040438000000021016054
:101A9000012242608160C260016141618161C16176
:101AA000016241628162C162016341638163C1631A
:101AB000016441648164C164016541658165C165FA
:101AC000016641668166C1660167704700B59DB0D9
:101AD0006846FFF7DBFF01200021400302F068FEAB
:101AE0000121880302F064FE0A2000900221029185
:101AF00001220692099200200A900C9103230B9375
:101B00001190159016901891052017900492684630
:101B1000FFF74CFF1DB000BD074806498162C105B3
:101B20000A69C3131A430A610168044A1143016038
:101B300070470000837A000080000040FF01000031
:101B400010B50021415E002901DB0B4600E04B424D
:101B50000024145FA34203DD002900DA494211800A
:101B60000221415E002901DB0B4600E04B420224CA
:101B7000145FA34203DD002900DA494251800421A9
:101B8000415E002901DB084600E048420423D35EA1
:101B9000984203DD002900DA4942918010BD00001F
:101BA00010B50D4810221421825E415E0B4B8A4213
:101BB00006DDDC8A121B12B202828A4200DC01823C
:101BC0001022825E8A4206DC9B8AD21812B20282FE
:101BD0008A4200DB018210BD9401002080020020B7
:101BE00010B50D480E221221825E415E0B4B8A42D7
:101BF00006DDDC8A121B12B2C2818A4200DCC1817E
:101C00000E22825E8A4206DC9B8AD21812B2C28100
:101C10008A4200DBC18110BD9401002080020020B7
:101C200010B50446204640300E230C21C35E615E91
:101C300002465B1A403003601023D35E0E22A25E80
:101C40009A1AC261074841802046703000F096F829
:101C5000A08220468C3000F091F8E08201F0DEFF97
:101C600010BD0000240000204043494341180248B1
:101C70000163406B80B27047000B014070B586B0C5
:101C800072B60026364C66616069E51428436061CF
:101C9000FFF78EFC334846858685C68501F012FE27
:101CA0000121314802F04EFB0596304802E00599CB
:101CB000491C059105998142F9D300960196049635
:101CC000039600202A4AA261E16AC907FCD0E16AB2
:101CD00003231943E1626169294361612049009B43
:101CE000403900268E5F9B1900930C268E5F019B66
:101CF0009B19019314268E5F029B9B1902930C265D
:101D00008E5F039B99190391401C80B20121490207
:101D10008842D8D3FFF772FCFFF74AFC62B60098FE
:101D2000401201B20F484030C180019A521213B2E2
:101D30000381029A521212B242810E4C09196000BC
:101D4000814205D81919814202D81119814205D959
:101D500009490888FF2201321043088006B070BD8F
:101D6000400401405401002000070140FFFF07002C
:101D7000A55A0000AC0D0000100000200269416966
:101D80000389511A59434389090153435918C368B8
:101D90005918C1600368994201DDC36003E04368DC
:101DA000994200DAC360C16809144261084670476D
:101DB00010B50121C80202F0FBFC32204107C862C5
:101DC00010BD03685B085B0003608260002903D0DC
:101DD00001680122114301607047704700220260D0
:101DE000CA68C2600A6902610A8942604A798B79CD
:101DF00092021B021A43CB789B011A430B791B01F9
:101E00001A438B78DB001A434B785B001A4302605D
:101E10000B7801221049002B1BD0104BC01806D0A4
:101E2000202808D040280BD0602812D10DE0486847
:101E3000104348600DE0486802231843486008E0FA
:101E4000486804231843486003E04868082318439F
:101E500048600A6070470000800A014000F6FEBF3B
:101E600010B50E480069002800DA40420C4A0421EF
:101E7000515E0C4B0C4C884205DDD88AE083988A71
:101E8000A083012007E04910814205DD588AE083E4
:101E9000188AA08300205080002010BDC8020020B6
:101EA0008800002040020020140600200F49104A3C
:101EB000896A4143C8130104506C091A4910081873
:101EC00050640014012800DA0120012309491B068F
:101ED0000B624862896A084B89B29983074BD8869E
:101EE000074B59430913116470470000400200205A
:101EF00088000020000B0140F40500205401002060
:101F0000354F0200F0B58446184D1748A862174BAC
:101F1000174E40339913B2420FD116481861164C30
:101F2000164F54407C40276815480740276060469C
:101F300048602068CF0338432060B2420BD10D487F
:101F400018611048104C4240624010481060086808
:101F5000400040080860002018610A6852005208DA
:101F60000A60A862F0BD0000837A00008000004093
:101F70001F360D9ACA8F00000A060CB01530002AD1
:101F8000FF7FFF7F1A3401B015020D2ABADC5476A8
:101F900038B50E48417B012916D10D49C978002971
:101FA00012D1417372B60B4A3F24640200212046CD
:101FB000FFF7A8FF0849054A009100234032042199
:101FC000204602F0BFFA62B638BD00002C000020A7
:101FD000440100201F360D9A0CA4FD9AF0B5164856
:101FE0001449C162154A0146938940390B87D38948
:101FF0004B870346124E803B5E6777421F67002483
:10200000DC67158985825289C2820661C760846156
:102010000C4A026301250246203A15737D225201C3
:10202000DA860C83642181872C22C28740300183A9
:102030004283F0BDDA5E0000D4010020400200209F
:10204000000090E8C538000070B50546244C2046D5
:10205000FFF700FB28792546803503280FD0042898
:102060000DD007280BD0092808D100206085A08555
:10207000E08520866086A086286B804770BD122090
:102080001C21205E615E1E224843C1131020205E89
:10209000A25E5043C013081AA08110201C21205EAC
:1020A000615E1E224843C1131220205EA25E50438F
:1020B000C0130818E0812046FFF7B2FD204602F069
:1020C000BDFA286B804702F0A5F902F0DFF8054859
:1020D000006A000C00B203F0A3FAE06170BD0000DA
:1020E000540100204002002030B501884389046972
:1020F0000A04C56881886343EB180904C3609342EE
:1021000001DD134602E08B4200DA0B46C360008912
:10211000444320011818904201DD104602E0884235
:1021200000DA0846001430BD70B52D490220085E63
:10213000052802DA401C488001E001204880022482
:102140000C5F2A49284E2A480A790C21254D715ED8
:102150004068230003F081FC060C040D182F3A0C94
:10216000A87F002804D12220305E224900F0C8FA5E
:1021700070BD072AFCD1204A927A1E4B184A1C33A4
:10218000921D00F06FF970BD1A493620285E383173
:1021900000F0B4FA174836213C38415E174A9142A4
:1021A000F1DB0F49091D0A8880239A430A801349ED
:1021B000491CC18670BD072AFCD10E4A0848463228
:1021C00011469A39801D00F0BBF870BD072AFCD17A
:1021D000084B034A5433921D00F028FA70BD0000EA
:1021E0000C000020180500205401002044010020AC
:1021F000C8020020400400208C050020B80B00001D
:1022000010B50F4A884213DD108800280CD000203A
:10221000108000210B4802F095F80948001D018844
:1022200001221143018010BD1088401C108010BD98
:1022300010880028FBD01088401E108010BD0000C0
:102240000C0000200007014070B58120C00503F09C
:1022500097FBFFF735FA304D288030480024048082
:102260004480848028463C30048044802C4803F01D
:10227000A7FB68802B4803F0A3FBA88028464A30C0
:102280000480294803F07CFBFFF71AFA688128468E
:10229000583004804480848044810120800703F00A
:1022A0006FFBFFF70DFA2882204803F079FBFFF758
:1022B0000FFA68611E4803F073FBFFF709FAA86183
:1022C0001C4803F05DFBFFF7FBF928841A4803F074
:1022D00067FBFFF7FDF9E861AC854E202885752086
:1022E00068852846823004809A38047004824482CB
:1022F0008482448044608460C460104804804480C8
:1023000084802846743004804480C4801C3004805B
:10231000448044812C8770BD0404002054010020B7
:102320000000B44300007E439A99193E008009459D
:1023300000004842CDCCCC3D0000F041120000200E
:1023400070B504460020105E282802DA401C108078
:1023500070BD00251580605F0221615E82108A4297
:1023600007DC8A100421615E8A4202DC8910814206
:102370000BDD0021074801F0E5FF074801884022F6
:102380001143018005490120088625806580A580CC
:1023900070BD000000070140100000200404002070
:1023A00030B51B490888400702D40888000722D5A9
:1023B000184A194C2220105E0825655F224600232A
:1023C0003C32A84216DB0625655FA84212DC0820D5
:1023D000105EFF242D34A04202DA401C10810AE076
:1023E00008880424A043088008880824A0430880A3
:1023F000138100E013810888800507D50748807F96
:10240000012803D1088810229043088030BD0000C5
:1024100010000020540100200404002018050020B2
:1024200010B50C49002008800B4908810E31088145
:102430000E31088188812A3908813831088107489E
:1024400003F0BEFA044C4A3CE080054803F0B8FAB9
:10245000208110BD100000204E0400200000AF437A
:1024600000008743FFB583B005460F461C460A208F
:10247000205E282803DA401C608107B0F0BD684266
:102480000290002D01DB284600E0029863490026F7
:102490004969884223DDA05F0A2802DA401C2080B7
:1024A0001EE05E493420085E022808DA401C888657
:1024B00000215B4801F046FF5A4806710BE00021FD
:1024C000574801F03FFF2680574A108810210843E3
:1024D00010805248868651480121818500E026807F
:1024E000002D01DB284600E002984C49CA69794278
:1024F000019190422EDA002F01DB384600E001986E
:10250000464920228A5E904224DD0220205E142863
:1025100002DA401C60801EE040493420085E022838
:1025200008DA401C888600213D4801F00BFF3D4839
:1025300006710BE000213A4801F004FF66803A4A38
:1025400010881021084310803448868633480221C1
:10255000818500E0668005980022825E2F49102068
:10256000085E824209DC059902228A5E824204DC0E
:10257000059904228A5E82421BDD28493420085EC8
:10258000022808DA401C88860021254801F0DAFE7E
:10259000244806710AE00021214801F0D3FE2248B8
:1025A00001881022114301801C4886861B480321A4
:1025B0008185002D01DB284600E00298174D6969EE
:1025C000884229DD002F00DA019F2020285E40008C
:1025D000874221DA0420205E322802DA401CA080E3
:1025E0004BE73420285E022808DA401CA886002128
:1025F0000B4801F0A7FE0B4806710AE000210848CD
:1026000001F0A0FEA6800848018810221143018035
:10261000AE860420A88530E7A6802EE704040020BB
:10262000000701404401002010000020F8B52B48AD
:102630002B4E008800242B4F2B4D002804D05C81AA
:102640003879072820D025E00A20185E642802DAAD
:10265000401C5881F4E73220285E022807DA401C2B
:1026600068860021214801F06DFE3C71E8E70021F9
:102670001E4801F067FE308801214902084330807E
:102680000120E8856C86DBE73820285E642801DAC3
:10269000401C2887288F642813D11548807F002884
:1026A0000FD1144814494068884214DA3220285E59
:1026B000022807DA401C688600210C4801F042FE1F
:1026C0003C71F8BD30880121490208433080022066
:1026D000E8856C86F8BD6C86F8BD00008A00002095
:1026E00010000020440100200404002000070140E5
:1026F00018050020C8020020881300007047000061
:10270000F8B50C46184902228A5E0025824203DC95
:102710002088401C208009E004228A5E824203DD7A
:102720006088401C608001E0258065800020205E7C
:102730000E4F0F4E642808DB0021384601F002FEE0
:10274000258030880421084330800220205E6428E0
:1027500008DB0021384601F0F5FD6580308808214E
:1027600008433080F8BD0000040400200007014049
:10277000100000200246002001235B031146814027
:1027800089B2994203D8401C00B20D28F6DB70478D
:1027900010B512480021018241826422C2821201D6
:1027A00082820F4A0280AF22920042807D231B0169
:1027B0008380C2800B4A42630B4A82630B4C962093
:1027C000E086A18600F016F8FFF708FC1E20A08125
:1027D0000520A0730648608610BD0000400200205E
:1027E00094110000EC5E0000185F00001406002049
:1027F00066060000F0B5FF4E0A20756B8BB0285EB0
:10280000B46BFEF781FD0746FB49206903F008FB26
:102810006169FEF77FFCA169FEF77CFC3946FEF793
:1028200079FCFEF727FD70620020205EFEF76CFD4C
:10283000F24F00903946206903F0F2FAE169FEF7A1
:1028400069FC0099FEF766FCFEF714FDB0620120FA
:1028500000076968FDF794FDF0620020205EFEF736
:1028600053FD00903946206903F0DAFA216AFEF739
:1028700051FC0099FEF74EFCFEF7FCFC3063A28988
:102880006E6864204243F117F00849070143D317EB
:102890007007FDF7D2FC0905000B0843D84E6421F0
:1028A00030836868FDF76CFD0004A189FDF768FDC1
:1028B00070832A691921D317009317464904E868E1
:1028C00003F09BF83A46009BFDF7B7FCA289002372
:1028D000FDF7B3FC0121C903081A3060C949E86853
:1028E000695E03F08AF8020F090111430022A25E1B
:1028F0000001D317FDF7A1FCC3490865642168688E
:10290000FDF73EFD069004900A20285E0290C01755
:10291000039004980026C017059068690090C017BE
:102920000190A05F0890C01709903246059904985D
:10293000FDF748FC019B009AFDF767FC039B029A98
:10294000FDF763FC099B089AFDF777FCAF4A00236B
:10295000FDF773FCAE49884202DA761C36B2E4E732
:10296000A94AD0641684AB48029000980199C70C1C
:102970002A694E033E43D31740033146FDF75DFC01
:1029800080B2069F00260090F8170390A08901905E
:10299000384632460399FDF715FC01225203002305
:1029A000FDF74BFC0023019AFDF747FC7D218901CF
:1029B000884202DA761C36B2EAE7C1170023029A8F
:1029C000FDF723FC0023009AFDF71FFCCA00410F0E
:1029D0008B48114341601E3E01214673890281826A
:1029E00000262A690020D31700931746205E8A49E3
:1029F00003F003F83246FDF7E5FB3A46009BFDF78E
:102A00001CFC0A27EF5FFB173A46FDF716FCA2896C
:102A10000023FDF712FC7D21C901884202DA761CF1
:102A200036B2DEE77D4902F0E8FF0903000D0843F6
:102A300073490E3E8860084686730020205E784AFF
:102A4000A9695043FDF792FC6F4988640020205E1D
:102A5000FEF75AFC06467349206903F0E1F9216A42
:102A6000FEF758FB3146FEF755FBFEF703FC6149C4
:102A700008630020205E6C49484302140A2000923B
:102A8000285E6A49484306147D21A089C900FDF7E4
:102A90006DFC6749F3178883564800210088324649
:102AA0000593FDF7B2FB2A69D317FDF7AEFBFF23B1
:102AB000009A87335A430092D2170192019B009AE1
:102AC000FDF7BBFB4B4980B208810490A089FEF75B
:102AD0008EF90391029047490498498802F0A5FFB6
:102AE000FEF7BCF90022534BFEF7C6F9039B029A8E
:102AF000FDF7D6FEFEF72EF93E49324648810846DC
:102B000000880021059BFDF780FB6A69D317FDF75C
:102B10007CFB019B009AFDF790FB87B235488781CB
:102B2000A089FEF764F9064632480091418838468C
:102B300002F07BFFFEF792F900223E4BFEF79CF974
:102B40003246009BFDF7ACFEFEF704F92949082246
:102B5000C8810846825E2C480A23C2840846C35EA8
:102B600029480E26038508460C21415E2648264F3B
:102B700041852048865F244886851E4880884243D8
:102B80009212FA851B4AD28853439B123B86034616
:102B90004B439812394648867243901288861548EE
:102BA000254B028916485830028112484189144841
:102BB000583041811C30028141811F496420888046
:102BC0001D4A0A2111837D22D2001A801A461081E3
:102BD0009181114608827D20C000888200204880B3
:102BE00048814882C881C882C8804883205EA0216D
:102BF000484323E0400200200046E2460000204710
:102C0000F40500200A00000088000020CFFD00002D
:102C10001027000010C9000040420F002F88060056
:102C2000F266010080908A47CE9300000A6A010094
:102C300020030020000024405C030020010C794E9A
:102C40000846B183FFF796FDF08300230146E35E5B
:102C5000A02043431027781AC340B3830020308359
:102C6000FFF788FD7083391AE1200001C8403083E6
:102C70000A20285E6C494843800C3080FFF77AFDBB
:102C8000014670800A20285E674A50431222511A7A
:102C9000C84030800020205E64494843800DB080E9
:102CA000FFF768FD0146F0800020205E5F4A504338
:102CB0001622511AC840B0806868000C3081FFF7B6
:102CC00059FD70816B68381AC34033810A21695EEF
:102CD0005748FDF74BFB010C564E08463180FFF775
:102CE00049FD708000900A21695E5148FDF73EFB66
:102CF00000990246781AC24032800021615E4E4837
:102D0000FDF734FB000CB080FFF734FDF08000903D
:102D10000021615E4848FDF729FB01460098381AFA
:102D2000C140B1803F0338466968FDF71FFB81B29F
:102D300031810846FFF71EFD70813B4683401846EF
:102D40006968FDF713FB308112203083FFF712FD15
:102D500087407083E12109013846FDF707FB308386
:102D60000021615E0A20012741433F033846FDF7F9
:102D700007FB81B2B1830846FFF7FCFCF08300211A
:102D80000246615E0A20414397403846FDF7EEFA5D
:102D9000B0832A4E2A49F08E16224843000CF08652
:102DA000B08E891048432749001488800420B073EE
:102DB0000020205E69695043FDF7E2FA0A21695E4E
:102DC000FDF7DEFA80B2411EB08113290DD200203A
:102DD000205E1D4A69695043FDF7D2FA0A21695EF7
:102DE000FDF7CEFAB081062010E0142801D30020B0
:102DF0000CE00020205E154A69695043FDF7C0FAD7
:102E00000A21695EFDF7BCFAB0810A20B0730D4952
:102E10000220C880A0890A225043800908810BB093
:102E2000F0BD00007C0300205B23000018170000A9
:102E30008DF61C009C030020B172C5021406002010
:102E4000402F0200880000206A050000A5560000FF
:102E500007480022418E01814260818E0B045B4253
:102E60008361090402624161024802667047000002
:102E70001406002088000020F0B52848857A2849EB
:102E800001274B8B274C0022022D0BD0867AE1259F
:102E90002D01012E12D0867A002E1BD0817A0329B3
:102EA00028D02BE05B1C9BB24B837D25ED00AB4211
:102EB00024D9827202743C234B831FE0067C642376
:102EC000012E01D182724B83868AAE4216D982725C
:102ED0004B8313E0002B02D05B1E4B830EE0818AF4
:102EE000A9420BD2017C012901D0877206E00221A0
:102EF000817203E02188002900D182722188002993
:102F000001D003218172817A012904D0817A0229BA
:102F100000D18774F0BD8274F0BD00008C050020E4
:102F20002C00002010000020704770B50023012500
:102F30002A469A400C681440944230D10C79002CF7
:102F400004D0012C0AD0022C10D012E004681646DE
:102F5000264306604468944344600AE0046894434E
:102F60000460466814463443446002E04468944375
:102F700044604C79012C04D0022C0AD0002C05D0DE
:102F800007E0046916462643066102E0046994439B
:102F9000046184698E68012E05D0944384615B1CB2
:102FA000102BC5D370BD1443F8E70000F0B5384FBF
:102FB0001401150216030B0002F04FFD10090E1547
:102FC0001B21262D33393E454B51565D630D016A59
:102FD000394089180162F0BD016A2D4AE13A114079
:102FE00061180162F0BD016A2A4A11406918016244
:102FF000F0BD016A0905090D71180162F0BD416A51
:10300000394089184162F0BD416A214AE13A1140D4
:1030100061184162F0BD416A1E4A1140691841625F
:10302000F0BD416A0905090D71184162F0BD816A60
:10303000394089188162F0BD816A154AE13A114030
:1030400061188162F0BD816A124A1140691881627B
:10305000F0BD816A0905090D71188162F0BDC16A70
:1030600039408918C162F0BDC16A094AE13A11408C
:103070006118C162F0BDC16A064A11406918C16297
:10308000F0BDC16A0905090D7118C162F0BD0000EB
:10309000F0FF0000FFF000000246002092680A42A4
:1030A00000D00120704741637047016370470021E1
:1030B0000160017141718160704700003EB5684652
:1030C000FFF7F5FF0120694608713F20800200905C
:1030D000114C2046FFF729FF03220A212046FFF763
:1030E00065FF03220B212046FFF760FF03220C211E
:1030F0002046FFF75BFF03220D212046FFF756FF16
:1031000003220E212046FFF751FF03220F21204604
:10311000FFF74CFF3EBD0000000801400B488188CE
:103120000B4881831C21415E002901DA0021818343
:103130001C21415EC28B8918C903090CC183C28B53
:1031400004498A4200D9C183C08B70470004014002
:103150002C000020FF7F000070B51748174CC08E70
:1031600001014118606B091A891208186063001187
:103170002083012080022085114802F011FCFEF717
:10318000A7FA2821615E0F4D4843800A28600E4847
:1031900002F006FCFEF79CFA2821615E4843800A93
:1031A00068600A4802F0FCFBFEF792FA2821615E93
:1031B0004843800AA86070BD540100202C00002004
:1031C00000409C44800500200080D44400C0DA44C4
:1031D00010B50449024A0846083801F089F910BDC3
:1031E000A80400206801002010B50E493620085EB2
:1031F000FDF7F5FD00220C4BFDF752FB0B4A0C4B83
:10320000FDF73AFEFDF762F901460A48FDF782FF35
:10321000FDF756FF054A084B5242FDF71EFBFDF72E
:1032200055F910BD18050020C0FFDF40CDCCCCCC37
:10323000CCCC0C400000484233332E407047000095
:1032400010B504460121022001F0D4FAA0782188AB
:1032500000040143E078227900051206104301437F
:10326000607940060143A07980060143E0790007B8
:103270000143207A40070143207C80070143034833
:103280000160E168C1600021416010BD00030140A0
:1032900000B585B00121022001F0ACFA684600F0CB
:1032A00015F8012040026946088000208870C87027
:1032B00001200871C8710872034803906846FFF73F
:1032C000BFFF05B000BD0000007C920007490180EF
:1032D000002181700122C2700271C271417181713D
:1032E00001727D22D200C26001747047FF030000AA
:1032F00010B572B6274828498862294827490160D5
:103300000F2189024160012000040168C2001143BD
:1033100001600121001201F06DFAFEF76FF900F073
:1033200015FC02F007FBFFF7C9FEFEF741FD00F0B8
:10333000F3FF00F001FAFEF7C9FBFFF7A9FF02F067
:103340006BF8642001F080FA01210A2002F0AEFB44
:103350000221072002F0AAFB0021092002F0A6FBAF
:103360000221012002F0A2FB0221042002F09EFBB8
:10337000042002F08FFB0A2002F08CFB022002F0F6
:1033800079FB012002F086FB092002F073FB62B694
:1033900010BD0000837A000080000040B4A6000049
:1033A000000C0140F8B5464800250079454E072835
:1033B00011D145480169454881420CDD44480088E7
:1033C000002808D1308A7D210901884203D3414871
:1033D000807A01280BD0B57440213F48FFF75CFE8E
:1033E000F074384C317D2034012903D01CE00120D9
:1033F000B074F1E7002817D1B07C012814D12070F7
:103400006078401CC0B26070227A3449012A21D011
:10341000632800D965700920205632225043627813
:1034200052088018085CA072B07C2D4F01281DD076
:1034300002212948FFF739FEF56225703878002807
:103440003BD0F08C002801D0401EF084F08C002886
:103450002ED032E0312800D9657009202056322361
:10346000627858434018105CA072DDE7207801288C
:10347000E4D1F06A401CF06231793229DED1718CDE
:103480008842DBD3F562A07A012806D002211248D7
:10349000FFF70BFE25703D70D0E702210E48FFF7C5
:1034A00002FE257001203870FF204B30F084C5E704
:1034B00002210948FFF7F9FD3D70F07C3075F8BD39
:1034C0004401002018050020C8020020983A00009E
:1034D000100000208C050020000801403C5F000027
:1034E0001800002010B52B48012404720346203B2D
:1034F000DA7C2038408B0021012A02D0002A05D036
:1035000017E0322815D2401C588312E000280BD057
:103510000F2807D2988B0F2804D2D87F642801D2B5
:10352000401CD87759839983988B322801D2401C4C
:103530009883988B0F2801D99C77D977588B0F28BF
:1035400001D99C77D977D87F052800D99977124877
:103550002222825E11480423C35E9A4200DD8280EB
:103560004278521CD2B24270142A12D941700423FC
:10357000C35E8268D218826083785B1CDBB2837082
:10358000102B05D3034B121120339A838160817075
:10359000818010BD38050020540100201800002053
:1035A000F0B53048314904782F48C8262527312501
:1035B0000078096800232E4A002C02D0012C24D068
:1035C00045E001280AD002280ED0032812D0012994
:1035D00010D0002814D0022912D038E09686092491
:1035E0001464D464546432E0978614241464D3645D
:1035F00054642CE096861D241464D464546426E03C
:1036000093861364D364536421E001280AD002280E
:103610000ED0032812D0012910D0002813D002297F
:1036200011D014E0968613241464D46454640EE01C
:1036300097861A241464D364546408E0968615644B
:10364000D564556403E093861364D3645364546C67
:10365000312C00D95564002801D0022900D15364CF
:10366000F0BD0000300000202E0000206800002087
:103670001805002010B503490020886002F072FA96
:1036800010BD00000001014010B5044601210846AC
:1036900001F0B0F8012001F0C1F820691A4A0101D7
:1036A000411848088018FCF761FE411E1848174A67
:1036B00082620161002181622068C20115480260B6
:1036C0006269A369D2019B011A43E3695B011A4352
:1036D000236A1B011A4363685B001A43A3681A43F9
:1036E00042608160C1600161626AA36AD2019B018C
:1036F0001A43E3685B011A4342618161E068002874
:1037000001D002F00FFA10BD006CDC02837A0000D9
:1037100080000040000101400021016041608160A3
:10372000C160044A026141618161C161016241621B
:1037300081627047A086010000B58BB06846FFF734
:10374000EBFF002000900121019102900391064AB5
:103750000492059106910790089009910A90684695
:10376000FFF792FF0BB000BD1027000010B5054A0F
:103770001070517003490222481E007802F0FEF9D1
:1037800010BD00007900002010B510210A48FFF795
:1037900083FC0A4988720022002803D001200871A6
:1037A000CA7210BDC87A401CC0B2C8720F28F8D9BE
:1037B0000A71CA7210BD0000400801402C000020B0
:1037C00070B5264E264CB07F002837D101F04EFE52
:1037D000354640352620285E618A88420ED1A07881
:1037E000E17888420AD12079A18A884206D1E08A0C
:1037F000002803D0E16B206B88421DD001211220EC
:10380000FFF7B4FFA07802F095FA2620285E02F0B8
:103810003FFA207902F080FAA07802281BD000201D
:1038200002F066FA02F012FAA078E070E88C60828A
:103830002079A0820120E082E06B2063B07F012824
:1038400008D1E08A012805D10020E0820121122060
:10385000FFF78CFF70BD0120E2E700001805002093
:103860002C00002070B50646308834690004C1176A
:103870007569001B0822A941B25EFCF7B3FC001970
:103880006941716130610904000C0843706070BDCA
:1038900010B50A4C6069C00602D4606980060BD579
:1038A00006480021803800F04DFD3020606104485A
:1038B000018802221143018010BD000080070140F1
:1038C00010000020F0B51048877C104A2E25555F67
:1038D0002A24145F2C236942D35E0EB261425A42FD
:1038E0000B4809B212B2002F06D0068085800281F3
:1038F000838101828482F0BD06808580018184817C
:1039000002828382F0BD00008C050020540100205B
:103910000007014070470000F8B506460D4601213A
:10392000102000F067FF30468249803001636A79D9
:10393000297992001143AA7AEB7A12015B011A43AA
:103940001143AA7992011143EA79D20111432A7BEA
:10395000120211436A7B52021143F16729883163D5
:1039600069887163E98B3162298C7162698CB162FB
:10397000A98CF162697A2A7A0902114331672946D2
:103980002031CB7D8A7D5B001A438B7FEC8A9B01C3
:10399000E40123431A430B7E1B021A434B7E5B0256
:1039A0001A43CB7F9B031A432B8BDB031A43026220
:1039B000CB7E8A7E5B002C461A43403423786F8B83
:1039C0009B01FF013B431A430B7F497F1B021A43B4
:1039D00049020A43617889030A43A98BC9030A4350
:1039E0004262A27B217B92001143A27AE37A120108
:1039F0005B011A431143627B52001143E27BD20008
:103A00001143227CD2011143227E12021143E27D36
:103A100052021143A27E92021143627ED2021143EE
:103A2000227F12031143E27E520311438162627DC1
:103A3000E17C92001143627CA37C12015B011A437A
:103A40001143227D52001143A27DD2001143227CFA
:103A5000D2011143627F12021143A27F520211432D
:103A6000C1622279A178120111436279237A52014D
:103A70009B011A431143E27812021143A279120307
:103A80001143E27952031143627A92031143716741
:103A9000E98C3165298D7165A18EB167E989B164C1
:103AA000298AF1641221695EB1631421695EF163B0
:103AB00060352A78E17F520011436A78AB78920230
:103AC000DB021A43114301602A79E978520011435D
:103AD0006A79AB799202DB021A4311438160E97B78
:103AE0002A7C0901520111436A7C92011143AA7C8C
:103AF000D201114301612A7AE979520011436A7AAD
:103B0000AB7A9200DB001A431143EA7A12011143A7
:103B10002A7B520111436A7B92011143AA7BD20195
:103B200011438161044931644160C16041610349CD
:103B30000163F8BDADDE0000FFFF0000FECA00001B
:103B400010B57621FCF70EFC10BD000000B59FB04B
:103B500001A8FFF7F5FF00206B461872012159728A
:103B60009972D97258839883D8831D4A10AB1A87EB
:103B70006B46197359731B4A9A80DA80194A143AB2
:103B80005A84194A9A8430225A859A85DA851A8687
:103B90005A869A8608AB9876D8760F9010AB9870B4
:103BA000D8701871D876179018AB187010AB1875BC
:103BB000197258729972D87218ABD870D874197576
:103BC00010ABD9735974D87401A90848FFF7A4FE43
:103BD00006488030006A064988831FB000BD000097
:103BE000FF1F000042040000DEFE0000000701404D
:103BF000BC0300200849486C0007000F0873052823
:103C000002D9002088707047032801D0887070475F
:103C100001204871704700002C000020F8B5254FA6
:103C20001622BA5E244C14216284795E10460B463B
:103C300050434B43214DA184C0182863686B214E2B
:103C400003B21F480382F88E7043001483420DDDD7
:103C50006689761C6681800328626B62A86A80B2DE
:103C600042439213414362848813A0841648E16B57
:103C7000006A4018001401F0D3FCF8611C221E21D8
:103C8000BA5E2225795E2420655F205E16460B46CB
:103C90006E434343F31A694342438818C01301B289
:103CA000206CDB131BB24343DA1341433A83C8133E
:103CB0007883F8BD5401002088000020000B0140EB
:103CC00020030020001301004002002070B5F549D8
:103CD000F54A4118F54EF64DF64C914211D2FDF7DA
:103CE000EFF93246F44BFCF7C3FD0022F34BFCF72F
:103CF000D7FD00222B46FDF7BFF8FCF7E7FBA064D9
:103D0000B3E1EF49EF4A4118914215D8FDF7D8F9D0
:103D1000ED4AEE4BFCF7A1FDED4AEE4BFCF7C0FD82
:103D200000222B46FDF7A8F800222B46FCF7A0FD49
:103D3000FCF7CCFBA06498E1E749E84A41189142BE
:103D400015D2FDF7BDF9E64AE64BFCF786FDE64ADB
:103D5000E64BFCF7A5FD0022E54BFDF78DF80022B0
:103D6000E44BFCF785FDFCF7B1FBA0647DE1E24983
:103D7000E24A4118E24D914215D8FDF7A1F9E14A16
:103D8000E14BFCF76AFDE14AE14BFCF789FD0022BB
:103D90002B46FDF771F80022DE4BFCF769FDFCF7BE
:103DA00095FBA06461E1DC49DC4A4118914215D2DF
:103DB000FDF786F9DA4ADB4BFCF74FFDDA4ADB4BBD
:103DC000FCF76EFD00222B46FDF756F80022D84B7B
:103DD000FCF74EFDFCF77AFBA06446E1D549D64AD4
:103DE0004118914215D2FDF76BF93246D34BFCF7DF
:103DF00034FDD34AD34BFCF753FD00222B46FDF78D
:103E00003BF80022D04BFCF733FDFCF75FFBA064CE
:103E10002BE1CE49CE4A4118914215D8FDF750F911
:103E2000CC4ACD4BFCF719FDCC4ACD4BFCF738FD05
:103E300000222B46FDF720F80022CA4BFCF718FDA4
:103E4000FCF744FBA06410E1C749C84A41189142FD
:103E500015D8FDF735F9C64AC64BFCF7FEFCC64A35
:103E6000C64BFCF71DFD00222B46FDF705F800228E
:103E7000C34BFCF7FDFCFCF729FBA064F5E0C1494E
:103E8000C14A4118914216D2FDF71AF9BF4AC04BF8
:103E9000FCF7E3FCB84ABF4B5242FCF701FD00229D
:103EA0002B46FCF7E9FF0022BB4BFCF7E1FCFCF7DB
:103EB0000DFBA064D9E0B949B94A4118914215D225
:103EC000FDF7FEF8B74AB84BFCF7C7FCB74AB84B4A
:103ED000FCF7E6FC00222B46FCF7CEFF0022B54B98
:103EE000FCF7C6FCFCF7F2FAA064BEE0B249B34AA4
:103EF0004118914215D2FDF7E3F8B14AB14BFCF7F6
:103F0000ACFCB14AB14BFCF7CBFC00222B46FCF7D2
:103F1000B3FF0022AE4BFCF7ABFCFCF7D7FAA06472
:103F2000A3E0AC49AC4A4118914215D2FDF7C8F85C
:103F3000AA4AAB4BFCF791FCAA4AAB4BFCF7B0FC8E
:103F400000222B46FCF798FF0022A84BFCF790FCC0
:103F5000FCF7BCFAA06488E0A549A64A4118914242
:103F600016D2FDF7ADF8A44AA44BFCF776FC9B4AA9
:103F7000A34B521CFCF794FC00222B46FCF77CFF61
:103F80000022A04BFCF774FCFCF7A0FAA0646CE0E4
:103F90009D499E4A4118914215D8FDF791F89C4AD7
:103FA0009C4BFCF75AFC9C4A9C4BFCF779FC00228A
:103FB0002B46FCF761FF0022994BFCF759FCFCF7FC
:103FC00085FAA06451E09749974A4118914216D862
:103FD000FDF776F8444A954BD243FCF73EFC944AF1
:103FE000944BFCF75DFC00222B46FCF745FF0022BA
:103FF000914BFCF73DFCFCF769FAA06435E08F4972
:104000008F4A4118914215D2FDF75AF88D4A8E4BCE
:10401000FCF723FC8D4A8E4BFCF742FC00222B461A
:10402000FCF72AFF00228B4BFCF722FCFCF74EFA30
:10403000A0641AE08849894A4118914215D2FDF7D7
:104040003FF8874A874BFCF708FC584A864B121DFD
:10405000FCF726FC00222B46FCF70EFF0022834BC8
:10406000FCF706FCFCF732FAA064A06CFDF702F93D
:1040700000B220841022A25E0021904203D00122CF
:104080006270217004E06278012A0AD061702170A8
:1040900021780A2903D90B2121707549888420824F
:1040A00070BDE7E09919CFBB33634D01CDCCCCCCCB
:1040B00000003E402C000020CC1C86400042AA405C
:1040C0000A97E1BC707D120185EB51B81ECD6340AB
:1040D000EC51B81E8529814097AE7DBD8D179C009F
:1040E0001904560E2D4A5040F1D24D6210505740DF
:1040F00000003440000049405839CFBDC08A51000B
:104100000000244046B6F3FDD4184640D8A3703DC5
:104110000AF7344000004E400C020FBEB4C83F0006
:1041200039B4C876BE1F3E40A6703D0AD7232C4046
:1041300000805140999958BE8D974900CCEC34408D
:10414000D8CEF753E365224000005440C64B93BEDF
:104150002CB23A004A0C022B87962D40A01A2FDD74
:1041600024861840008056403BDFD5BE7493420041
:104170006ABC749318442540C09F1A2FDDA41040D8
:1041800000005940022B07BFC74B3100B4C876BEB0
:104190009F1A1F4022DB064000805B40931848BFF7
:1041A00091ED4000B0726891EDFC164008AC1C5ACD
:1041B000643B004000005E40E7FB75BF54E32D0008
:1041C0008D976E12834011408C6CE7FBA9F1F63F8E
:1041D000004060403F35AEBF58393800D34D6210C3
:1041E00058390A408EC2F5285C8FF03F008061404C
:1041F000EFA7DEBFB07230005EBA490C022B04405C
:104200005839E83F00C06240CEF703C0DE4F2500BA
:104210001B2FDD240681FF3F428B6CE7FBA9E13FAA
:104220000000644083C03AC0B4C83600EFA7F83F2E
:104230003408AC1C5A64DB3F00406540BC7463C06A
:1042400039B42800C520B0726891F33F243108AC1E
:104250001C5AD43F00806640416085C085EB210038
:104260008716D9CEF753EF3F643BCF3F00C067407E
:10427000580500202178491C217009E702480021D7
:10428000C1608161816070472003002030B50D4816
:104290000D4A0E4B047998691169042C0DD20C4D0E
:1042A00014682D8B64106C43DD696419DC6118623D
:1042B000516008490120087030BD18625160D86112
:1042C00030BD000044010020C80200204002002050
:1042D000F4050020880000200421415EC9008268A6
:1042E0008A4206DA0023C35ED21882608A4200DB6B
:1042F000816082688A4206DD0223C35ED21A826030
:104300008A4200DA81608268D310C3808A4201D178
:10431000012070470020704710B50121480200F0CD
:1043200047FA074905488862C80501698908890074
:104330000161016901221143016110BD837A00000E
:1043400080000040084A80300263012906D0816A5B
:10435000064A11408162064901637047816A402222
:1043600011438162F7E70000ADDE0000BFFF0000EF
:10437000FECA0000F0B52249204D0024A88908811A
:10438000E88948811F4A18200C60105E621F504364
:104390008010486008461430A5220460D243C460EF
:1043A00042602A8A02816A8A428117480A46383A5C
:1043B00046420B4641C21C3BDC6041C30E463220E4
:1043C000903E5460F08211480789178047895780D2
:1043D00082891A80C2895A80AC650D4BEC651A68D7
:1043E0002A6684611A616C65CC6034610A216C664E
:1043F000C187EC63FEF72CFD6C80F0BD88000020C7
:104400008406002094010020000070174002002064
:10441000C8020020F0B5304E1E213046415E2022F9
:104420007588825EC46C036DC9002C48AC46012DB2
:1044300000682B4D46D040350E27EF5F67437C1355
:104440001027EF5F5F437B13C91A604310410818C0
:1044500024494042884202DC4942884200DA084648
:104460007083B0831D481C21C28B715E036A4A436E
:104470009A180262838B52134B4319138A180260F5
:10448000C18E8A4202DC0160490301620068316E1C
:104490000203521A921151183166134A091311611D
:1044A0000E49124A2039498B4843B16B0918B16350
:1044B0009161614600290CD041100818F063708C9E
:1044C000F083F0BD0C27EF5F67437C130E27EF5F8F
:1044D000B8E70020F2E70000880000201406002062
:1044E00054010020E02E0000C802002040020020FD
:1044F00010B514460F48818A0F484089081A00B247
:10450000682108530C49222240398A5E5043A0603A
:104510000013206120461030FFF7A4F960601721D6
:10452000484340122060A068222148438015E0667D
:1045300010BD0000000401409401002000B500F00F
:1045400079F900BDFEB5089B01240094334C324D2F
:10455000A562334C01263604A3424FD12F4C314D76
:1045600040346561304D314C6B4063401C68304DC8
:104570002C401C6070601C68F5022C431C601346C4
:10458000C91C8F08BF000197029015E002998908A5
:104590008900716019785C78240209199C78DD78AB
:1045A00024042D0664190919B1601B1D0199091F06
:1045B00001910299091D029101990029E6D1019703
:1045C000029018E00298800880007060107853789C
:1045D0001B02C0189378D4781B0424061B19C0183A
:1045E000F368834200D00091121D0198001F0190D2
:1045F0000298001D029001980028E3D1074900208D
:104600004031486131680B4A11403160034988628A
:1046100068460078FEBD0000837A000080000040FC
:104620000CA4FD9A358F00000F045C6A03A0A0F073
:10463000FF7FFF7FFFF7FFF770470000FCB5418B5E
:10464000182349420AB24283C35E69460B80494936
:1046500002254A43990351184942CA17520C51186E
:10466000C9130CB269464C80191949420AB269460D
:104670008A8001462031A3421CDC93420BDC944229
:1046800004DC01264E760E76164602E04D760D7657
:1046900026469E191EE01619F70FBE1976109B1BB1
:1046A0006F463B80A31B7B80921BBA8003224A7615
:1046B0000D7629E0944218DC934205DC04264E7600
:1046C00001260E76164604E005264E7603260E7663
:1046D0001E46A619F70FBE1976109B1B6F463B802E
:1046E000A31B7B80921BBA800EE0D618F70FBE1971
:1046F00076109B1B6F463B80A31B7B80921BBA806E
:1047000006224A7603220A76AC2300221B58BA5EA0
:104710000124A4039E8912197243D213643E964267
:1047200001DA324602E0392A00DA0022428502220A
:10473000BA5E9E8912197243D213643E964201DA20
:10474000324602E0392A00DA002282850422BA5E6B
:104750009B8912195A43D213643B934201DA1A46D9
:1047600002E0392A00DA0022C285012048768D76DF
:10477000FCBD0000DA6E00003EB50B4C22886B4693
:104780001A814031CA881B89D21AA4896B461C81C0
:1047900009891B89C91A6B461A8059800622694605
:1047A000FBF783FD3EBD00000004014070470000A0
:1047B00010B50F4C0D4AA26223151A0501290BD022
:1047C000410503D5116919431161184311698143EA
:1047D00011610020A06210BD410503D51169994304
:1047E00011619843116901431161F2E7837A000076
:1047F00080000040084A074B9362002903D0D1692A
:104800000143D16102E0D1698143D161002090620E
:1048100070470000837A0000800000400449034A8A
:104820008A6248620020486288627047837A00008A
:10483000800000400348006800E0C06C0028FCD104
:10484000704700008400002008B50021009103E0BB
:1048500000BF0099491C009100998142F8D308BD1E
:1048600010B542680168891A4162084A914201DD27
:10487000114604E0054A5242914200DA1146416273
:10488000183000F01BF80249C88110BDFF7F0000FE
:10489000940100200268C1688A4205DA836BD2184D
:1048A00002608A4200DB016002688A4205DDC36B58
:1048B000D21A02608A4200DC01607047F1B588B00C
:1048C00008980068C117820A8D0515438405089869
:1048D0004068C117820A8F05174386050898089A11
:1048E000C0680790C117069152890023FBF78DFC21
:1048F000089AD1619061059104900898059903691F
:104900004269049818184A4108994A610861114699
:10491000039202900A462946201A914103DA089828
:104920004561046107E002990398891BB84102DAE6
:10493000089847610661089A00231289069907982A
:10494000FBF763FC420EC9011143C001089A1369C9
:104950005269C0185141089AD1619061019100904B
:104960002A46201A8A4103DA0898C561846107E063
:1049700000990198891BB84102DA0898C7618661DD
:1049800008988169007F8202880D104300B209B047
:10499000F0BDC168C90142698A4206DA1023C35ECC
:1049A000D21842618A4200DB416142698A4206DDD7
:1049B0001223C35ED21A42618A4200DC4161704711
:1049C00070B5164800240460154A0220105E154B8D
:1049D000411C154D09B20A2803DA51809888A88035
:1049E00009E0142803DA51801888A88003E00F49F1
:1049F0000420087154800E4E304600F0C1FF28801C
:104A0000304600F0BDFF68800748FFF765FC0948A5
:104A1000C48144828482048270BD0000C8020020E8
:104A2000DC03002080020020440300204401002019
:104A30000AD7233C94010020F8B53C4E3C4FB07B94
:104A40003D468035002400280BD03A493A4B085F98
:104A50003A493B4A002814D0642823D0C82829D0DA
:104A60002FE00120B073FF2048307885B885F885A5
:104A7000404238867886B886286B80472D48048067
:104A800045E00B63908B2F4B18430862908B0C22F0
:104A9000104348620C63294801218038FFF752FC1B
:104AA00000BF0EE00B63908B274A104308620C6333
:104AB00000BF06E00B63908B0822104348620C6332
:104AC00000BF1C490020085EFF222D32904202DA0E
:104AD000401C08801BE0194800218038FFF732FC99
:104AE00072B67C85BC85FC853C867C86BC86286B42
:104AF00080471249FF2040390860FFF727F8134824
:104B00004169C2141143416162B60120F073F07B28
:104B100001280AD1B47307480480F47300F028F820
:104B2000064801218038FFF70DFCF8BD8002002007
:104B300054010020DC030020ADDE000080070140AE
:104B4000BC030020080C00000C08000040040140D9
:104B500010B505490020C87000210448FFF7F2FB9A
:104B6000FDF71EFC10BD00004401002000070140BD
:104B7000F8B500218148FFF7E5FB814800F010FF00
:104B800080490882804800F00BFF7E4948827F48B8
:104B9000002484777D49782008840C2048840846C6
:104BA0008480448004808460846144610482C460A1
:104BB000FFF764FB764FBC7072488473C4730020A7
:104BC00000F0CCFE6F498881724D284600F0D8FE77
:104BD000FCF776FD6B498882284600F0D1FEFCF791
:104BE0006FFD6849C8826D4D6B4828806880A88039
:104BF0002E468036306B8047284640300482C48180
:104C0000EC81AC812C826C82848244822C806C800A
:104C1000AC802C866C86AC86B4613462EC677460C0
:104C20002C836C83EC82AC82AC84EC842C850020D9
:104C300000F0A6FE53490860594800F0A1FE514912
:104C40004860584804824482446184808460C480FF
:104C5000554800F0A5FE4B49886008468477848358
:104C6000524844800A20F8807D20514D400128841C
:104C7000504868840021A962E9624F4E304600F036
:104C80007FFEFCF71DFDA861304600F079FEFCF7C1
:104C900017FD4042E8616C622C60EC60474E304684
:104CA00000F07EFEFCF714FDA863304600F078FEAD
:104CB000FCF70EFDE8636C606C64314800F070FE38
:104CC000FCF706FD2864FF200130A8643C48007C06
:104CD000002807D13B4800F053FEFCF7F1FC2946C1
:104CE0004031C881384800F05BFEFCF7F1FC2865D4
:104CF000364804608460002202624262052101831A
:104D000004614461FFF736FB274800F049FEFCF7D9
:104D1000DFFC2F4988872F4800F042FEFCF7D8FCC3
:104D2000184DE8632C4800F03BFEFCF7D1FC2864EA
:104D30002A48048044808480C48004814481848122
:104D4000FDF782FA00257D5FFCF758FC3888401B90
:104D500002D43888401B01E03888281A0228F5DB85
:104D60001F48F021C180C82101814181AA21818190
:104D70004484848432210171F8BD000000070140A1
:104D800000002041800200200000A04120030020FC
:104D900044010020CDCCCC3D210200005401002074
:104DA000CDCC0C3F440300200000704200000020E6
:104DB000C8020020701700009A99193F0000404077
:104DC0008C050020CDCC0CBF0000AF43A804002010
:104DD000400200200000F0410000FA43DC03002004
:104DE00018050020F8B5304DA87F00285BD12F4C66
:104DF0002846A17880682E4E002927D04042F060D6
:104E0000002000F0CDFD30822A4800F0C9FD7082FC
:104E10002748FFF7BEFD7069274EC011F060FCF710
:104E200057FC306025488169C069081A286200284B
:104E300000DA404200142862214900264018214926
:104E4000884205D2A88C401CA88402E0F060D7E715
:104E5000AE84072020710120A877A1781A481B4C46
:104E6000002902D0012906D00BE000F089FDFCF7F3
:104E700027FC608205E000F083FDFCF721FC404246
:104E80006082134F384600F07BFDFCF719FCA882C6
:104E9000384600F075FDFCF713FCE882FCF780FE55
:104EA000FCF79EFEA682F8BD80020020440100208F
:104EB000440300200000A041C8020020400200205E
:104EC0002FF8FFFF7F3E0000CDCC0C3F9401002067
:104ED000CDCCCC3DF8B5744B0C21595E734F744E5C
:104EE000744D754C022912DA74480088012809D1E2
:104EF0002869002800DA40423A6C904202DD491CE1
:104F0000998101E000209881FCF76AFE5EE00620AE
:104F10006849185E496802280EDA401CD8800E20C5
:104F2000205EC217830A92051A438005EA62A862CE
:104F30002960FCF755FE49E0BA8B521C12B2BA83C5
:104F4000002A43DB0022BA8302280DD10320D88037
:104F50001220205EC217830A92051A438005EA6276
:104F6000A8622960FCF73CFE5548827A5549012A1F
:104F700003D0807A022806D007E0534800788000EA
:104F80000858E86001E00868E86050488078002828
:104F900002D0012806D00AE0E868002807DA40427B
:104FA000E86004E0E868002801DD4042E86030780D
:104FB00001281AD0012070703E48FFF76BFC3D4875
:104FC000FFF74EFCFCF78CFB414908804148817F8C
:104FD00039484030012910D03949897A00290CD04C
:104FE000296900292FDB0A462EE03B490020088072
:104FF00037490880FCF7F4FDE8E7818F2187C18FEE
:1050000061872D4980310A8B8282498BC1822C486D
:10501000007C284F4037012806D1304800F0B0FC12
:10502000FCF74EFB8010F881F88960820120307017
:105030002869002800DA4042296D88422EDA234888
:10504000092101712AE04A42254D264BAA420BDC78
:105050009D892587DA89628719898182C182B18019
:10506000F1803581728117E0002900DA49421E4A39
:10507000914211DB99897D2292025143090C2187CB
:10508000D9891A4A5143090C618719897D229202F4
:105090005143090C8182C182002030700C48008885
:1050A000A082FCF77DFDF8BDDC030020800200201B
:1050B00000000020C8020020940100208A00002087
:1050C0008C050020800500203000002044010020D5
:1050D0009E00002018050020A0000020CDCC0CBFB1
:1050E0007017000040020020102700000088130005
:1050F00006490A20085EFA2802DA401C48817047F7
:105100000020488102490871C8707047DC03002004
:105110004401002010B5002A08D003460C781C700A
:10512000491C5B1C002C02D0521EF7D110BD00217F
:1051300001E019705B1C521EFBD110BD70470000CE
:10514000F8B53B4C3B4F20793B4E0025030000F067
:1051500084FC0C07201B292C52522F5244474C52DE
:10516000B87F002808D13548807A002804D0012073
:10517000E070344932480860FFF7FAFCE078002814
:1051800039D00220207136E0FFF756FC0120207153
:1051900031E0FFF7EDFC01212B48FFF7D3F80320A6
:1051A000207128E0FFF70CFC25E0FFF71BFE22E052
:1051B000388A7D210901884201D2401C3882FFF7DC
:1051C00089FEE078002816D13088002813D100210C
:1051D0001D48FFF7B7F825710DE0FFF789FF0AE0DA
:1051E000E088002807D0257105E0FFF7B1FC308882
:1051F000002800D12571E078002809D130880028E6
:1052000006D100211048FFF79DF8C820E0802571E5
:105210003088002805D000210B48FFF793F80B20B9
:105220002071B87F012802D1084885864586F8BDDF
:105230004401002018050020100000208C050020EB
:10524000C0DA0000600000200007014004040020D4
:1052500000B5FCF761FC00BD704700000A48016A18
:1052600004221143016209480179491C0171C18876
:10527000491CC1800189491C01814189491C418126
:105280008189491C8181704700060140300100205E
:1052900070B505460C462748854203D101212020E0
:1052A000FFF7A8FA2448854203D101214020FFF7E7
:1052B000A1FA20782179C007C9060843217A890616
:1052C0000843217B09060843218A09050843A18A6E
:1052D00009040843E16909030843216AC902084334
:1052E000616A89020843A16A49020843E16A090226
:1052F0000843616B09010843A16BC9000843E16BD6
:1053000089000843216C49000843616C0843286008
:10531000A0696860E06CA860A06CE860206B286100
:10532000206D6861606DA861A06DE861072028624A
:1053300070BD000000050140000601400021016031
:1053400041608160C1600161416181610122C2618E
:10535000026241628162C162016341638263C1632F
:10536000016441648164C164016541658165704780
:1053700070B5234D002428790A2819D32C71214EA9
:10538000F088002801D0401EF080FCF7CDFE00F030
:10539000A1F9FDF7E1FE1C480088002801D00B2090
:1053A0003071FFF7CDFE19492220085EFCF758FD49
:1053B000E888642804D3EC8000F072F900F03AF831
:1053C0002889C82802D32C8100F08CF968897D21B6
:1053D000C900884206D36C810D48807C012801D128
:1053E000FEF7DEF8A8890B49884204D3AC8100F0AF
:1053F0000BFD00F07DF9A878002800D0AC7070BDDE
:105400003001002044010020100000205401002041
:10541000180500208813000010B50549034888626C
:1054200001210803FFF7C4F910BD0000837A0000D2
:10543000800000400C4900228878042801D0CA630B
:105440007047886B401C8863FF232D33984202DA33
:105450000120C86370474B23DB00984202DA022028
:10546000C86370478A6370472C000020F8B5604815
:10547000604A846C614903795F4FA2186118807893
:105480000025012B34D15A4E002831D0F5715C48EB
:10549000824212D82046FBF713FE00223B46FBF760
:1054A000DCF90022574BFBF7E7FC00223B46FBF7F9
:1054B000C7F9FBF719FCB0847CE05348814212D253
:1054C0002046FBF7FDFD0022504BFBF7C6F9504A82
:1054D000504BFBF7D1FC00224F4BFBF7B1F9FBF728
:1054E00003FCB08466E02046FBF7C4FEB08461E0B4
:1054F0003F4E002B33D1002831D0F5714048824215
:1055000012D82046FBF7DCFD00223B46FBF7A5F94D
:1055100000223C4BFBF7B0FC00223B46FBF790F926
:10552000FBF7E2FBB08445E03748814212D22046C7
:10553000FBF7C6FD0022354BFBF78FF9344A354B9C
:10554000FBF79AFC0022344BFBF77AF9FBF7CCFB14
:10555000B0842FE02046FBF78DFEB0842AE00028BF
:1055600028D12046FBF7ACFD00223B46FBF775F93E
:105570000022244BFBF780FC00223B46FBF760F93E
:10558000FBF7B2FBB084708C401C80B270847D212C
:105590000901884203D9481C70840120F071154824
:1055A000C043844202DBF079012803D12046FBF797
:1055B00061FEB0840E4924202622085E8A5E904255
:1055C00003D001228A73CD7304E08A7B012A0AD0BA
:1055D0008D73CD73CA7B0A2A03D90B22CA730F4A73
:1055E000D084C884F8BDCA7B521CCA73F2E700009D
:1055F0002C000020FFFF27BE00003B40FFFFEBBD5B
:10560000FFFF3B0000000840FFFF5B0000804240BE
:105610009A9999999999054000804C405805002025
:1056200018B50121C903411809048A0D0321090293
:105630000A400121C90340188004010E4800FF24DC
:10564000611A154B4900002A16D0FF3A013A1BD0C7
:10565000FF3A013A03D0FF3A013A1BD105E0185A4C
:105660006A465080585A108014E0595A6A46518050
:10567000185A404210800DE0185A6A464042508045
:10568000585A4042108005E0595A6A4649425180B2
:10569000185A1080009818BD00690000704700007B
:1056A00010B5FDF795FDFDF7E7FBFDF79DFDFEF756
:1056B0000DFB054B0549987F8871FDF72FFD0449C7
:1056C00088818889D88610BD180500202C0000200C
:1056D0008C05002010B5FEF757F8FDF703FFFCF727
:1056E00057FC10BD10B5FCF721F9FEF769F810BDA5
:1056F000FEB5504C207A401CC0B22072022873D3F1
:10570000002323724C4F34203946385E4031242226
:105710008A5E8646801A8446001D082802D9042025
:1057200060720FE06046C01C062802D90320607238
:1057300008E06046801C042802D90220607201E063
:10574000012060723C263C48BE5F3D6C20300295D3
:10575000AE4200D00374029DBD87374F7D6C00952B
:105760006DB2019529257D57724530DA6646052EC2
:105770000DDD047C002C07D012240C5FA24201DC5A
:105780006D1C45720B7641E0019C4472FAE7CE7DB8
:10579000002E0DD04E7E761CF6B24E76042E03D926
:1057A0004B76647A2C194472047C012C07D02DE0CE
:1057B000647A2C1944720124CC750B76F4E7092520
:1057C000029C4557A41EA54220D303741EE09645B3
:1057D0001CDA7646961B0A2E0BDD047C002C04D0C6
:1057E0006D1E4572CB7511E023E0437201240474F1
:1057F000F8E70E7E002E0FD08E7E761CF6B28E76E7
:10580000032E03D98B76647A2C1B44720924045727
:10581000002C08DA43720BE0647A2C1B44720124DA
:105820000C76CB75F2E7009B9C4201D9019B437239
:105830004A82FEBD2C00002018050020FEB56846F7
:10584000FDF735FC002468460471012545712802E6
:105850000090204E69463046FDF767FB68460471AC
:105860004471102000901B4869464030FDF75DFBF5
:105870006846047144714020009069463046FDF747
:1058800054FB02213046FDF710FC6846FDF70FFC83
:10589000684605710220009069463046FDF745FBD9
:1058A00002213046FDF701FC684604714471052071
:1058B000C001009069463046FDF737FB06220721FC
:1058C0003046FDF773FB062209213046FDF76EFBDB
:1058D000FEBD00000008014010B50F49002088748B
:1058E000887288820D49C88600F072F90A4900233F
:1058F0000B4A18310BA0FBF748FF07480B4A012160
:105900001830FBF733FF3F20400209490068486424
:10591000FEF770F910BD00008C0500200404002083
:10592000D15D0000427574746F6E31003D17000048
:105930002C00002000B597B06846FFF7FFFC01205F
:1059400000904B2080010690042016906946024882
:10595000FFF79EFC17B000BD0006014070B505467C
:10596000064C208BFBF7D8FC294600F059FAFBF7D0
:1059700081FCA17E084180B270BD00005C03002064
:1059800070B50546054C2088FBF7C6FC294600F09B
:1059900047FAFBF76FFCA178084170BD5C0300205B
:1059A00070B50546054C2089FBF7B6FC294600F08A
:1059B00037FAFBF75FFCA17A084170BD5C03002059
:1059C00010B5FBF77DFB074A074BFBF755FA0022A2
:1059D000064BFBF751FA064A064BFAF761FFFBF755
:1059E00083F910BD72DF92CEF66A7D3FC0FFDF40C3
:1059F000CDCCCCCCCCCC0C407047F8B504148BB2D9
:105A0000264682B25E430D141046371458433604BE
:105A100080190021794116466E43371436048019E7
:105A2000794126466E438919F8BDF8B5040C8BB24E
:105A3000264682B25E430D0C1046370C584336049E
:105A400080190021794116466E43370C36048019BF
:105A5000794126466E438919F8BD30B47446641EF8
:105A60002578641CAB4200D21D46635D5B00E318E1
:105A700030BC1847002809DBC106C90E0120884048
:105A800003490860BFF34F8FBFF36F8F704700006B
:105A900080E100E0002805DBC106C90E0120884036
:105AA000014908607047000000E100E08307FF2221
:105AB000DB0E9A408907090E9940002808DB83080D
:105AC00009489B001818036893430B430360704711
:105AD0000007000F0838830804489B001818C369A2
